:1000000000308A00FE28000024308400831300089A
:10001000031917280230F800F701F70B0D28F80B29
:100020000C289730F700F70B1328800B0A280800DC
:1000300083160914831209182E280230A400042004
:1000400083160914831209182E28A20AA21B2E282F
:100050002208063C03182E280130A20083168914BA
:100060008312891844280230A400042083168914BE
:10007000831289184428A203A21B42282208003CAC
:10008000031C44280630A2000800A0012008073CF9
:10009000031C61288030A1002008F80003195428AF
:1000A0000310A10CF80B50280030A3008316870121
:1000B000831221088700C830A40004201820A00A59
:1000C00046288A110A123B29A0012008073C031C7C
:1000D00080280130A1002008F800031973280310BC
:1000E000A10DF80B6F280030A3008316870183123F
:1000F00021088700C830A40004201820A00A652821
:100100008A110A123F29A0012008073C031C9F28DE
:10011000C030A1002008F800031992280310A10C98
:10012000F80B8E280030A300831687018312210864
:100130008700C830A40004201820A00A84288A114F
:100140000A124329A0012008073C031CBE280330E3
:10015000A1002008F8000319B1280310A10DF80B25
:10016000AD280030A3008316870183122108870081
:10017000C830A40004201820A00AA3288A110A125B
:100180004729A0012008073C031CDD28FF30A100FF
:100190002008F8000319D0280310A10CF80BCC2874
:1001A0000030A30083168701831221088700C8301E
:1001B000A40004201820A00AC2288A110A124B2980
:1001C000A0012008073C031CFB28A1012008F8001F
:1001D0000319EE280310A10DF80BEA280030A30044
:1001E00083168701831221088700C830A4000420E9
:1001F0001820A00AE1288A110A124F2903081F3982
:100200008300713083168F000F0801308312A20023
:10021000FF30A300831603170908C03989000313B0
:100220001F129F1200300317880083128701880174
:100230008901831300308316031387008312A30000
:10024000831609148914091589158312A3008316CE
:10025000870183128701C830A40004200030A30066
:1002600083168701FF3083128700C830A400042062
:10027000220B3B2945282208023C03196428220846
:10028000033C031983282208043C0319A2282208EE
:10029000053C0319C1282208063C0319E028382927
:0202A0006300F9
:04400E00E42FFF3F5D
:00000001FF
;PIC16F887
;CRC=7F2F  CREATED="30-Jul-25 22:14"
