:1000000001308A006A2900000A108A100A1182074A
:10001000C034F934A434B034993492348234F8348E
:100020008034903426308400831300080319252877
:100030000230F800F701F70B1B28F80B1A2897304D
:10004000F700F70B2128800B182808002908F80171
:10005000280203182E282808F7003A28F70108304C
:10006000AA00A80DF70D290877020318F700F80D6C
:10007000AA0B312808002608A8000A30A90026206B
:1000800077080420A70083168601831227088600BC
:10009000A3002608A8000A30A90026207808A80096
:1000A0000A30A900262077080420A70083168801BB
:1000B000831227088800A4002408C03C031D682878
:1000C000FF30A4002308C03C031D6828FF30A300B4
:1000D0008316860183122308860083168801831203
:1000E000240888000800831609148312091891282F
:1000F0000230A600122083160914831209189128D1
:10010000A20AA21B89282208063C0318892801306C
:10011000A200831609148312091C89282208A6004C
:100120003B208316891483128918AF280230A60059
:1001300012208316891483128918AF28A203A21BE8
:10014000A5282208003C031CA7280630A20083161D
:1001500089148312891CA7282208A6003B200800C6
:10016000A0012008073C031CCC288030A1002008F7
:10017000F8000319BF280310A10CF80BBB280030AE
:10018000A50083168701831221088700C830A600C6
:1001900012207320A00AB1288A110A12AC29A001EA
:1001A0002008073C031CEB280130A1002008F800C0
:1001B0000319DE280310A10DF80BDA280030A50082
:1001C00083168701831221088700C830A6001220F9
:1001D0007320A00AD0288A110A12B029A001200891
:1001E000073C031C0A29C030A1002008F8000319AD
:1001F000FD280310A10CF80BF9280030A500831688
:100200008701831221088700C830A60012207320BE
:10021000A00AEF288A110A12B429A0012008073C7D
:10022000031C29290330A1002008F80003191C2908
:100230000310A10DF80B18290030A50083168701C3
:10024000831221088700C830A60012207320A00A5C
:100250000E298A110A12B829A0012008073C031CA4
:100260004829FF30A1002008F80003193B2903109A
:10027000A10CF80B37290030A500831687018312E3
:1002800021088700C830A60012207320A00A2D295B
:100290008A110A12BC29A0012008073C031C672907
:1002A000FF30A1002008F80003195A290310A10DFE
:1002B000F80B56290030A500831687018312210808
:1002C0008700C830A60012207320A00A4C298A118A
:1002D0000A12C02903081F398300713083168F006A
:1002E0000F0801308312A200FF30A5008316031708
:1002F0000908C039890003131F129F120030031729
:1003000088008312870188018901831300308316D6
:10031000031387008312A500831686008800091442
:100320008914091589158312A50083168701831284
:100330008701C830A60012200030A500831687016F
:10034000FF3083128700C830A60012202208A600C2
:100350003B20220BAC29B0282208023C0319CF28ED
:100360002208033C0319EE282208043C03190D2936
:100370002208053C03192C292208063C03194B29A5
:04038000A929630044
:04400E00E42FFF3F5D
:00000001FF
;PIC16F887
;CRC=FB71  CREATED="02-Aug-25 14:35"
